:020000040800F2
:1000000000200020DD010008E3010008E7010008EE
:1000100000000000000000000000000000000000E0
:100020000000000000000000000000001D020008A9
:10003000000000000000000021020008C5080008C0
:100040002D020008000000002D0200082D0200080B
:100050002D0200082D0200082D0200082D020008C4
:10006000000000002D0200082D0200082D020008EB
:100070002D0200082D0200082D02000800000000DB
:100080002D02000800000000000000002D02000802
:100090002D0200082D0200082D0200082D02000884
:1000A0002D0200082D0200082D0200082D02000874
:1000B0002D02000800000000000000000000000009
:1000C0005FF808F130B583B000F080FA314B324A66
:1000D0001360324A1360324B324A33498B4204D2A6
:1000E0001168196004330432F7E72B4B1A682F4B61
:1000F0009A4200D0FEE7294B1A682D4B9A42F9D15B
:10010000244B2C4A13602C4A13602C4B02E0002233
:100110001A6004332A4A9342F9D3264B1B68002BFA
:1001200003D1254B1B68002B00D0FEE700F052FAEC
:10013000694601A800F0DEF9224C234BE41AA41012
:100140000025AC4214DC214C214BE41AA4100025FC
:10015000AC4213DC0099019800F0BAFB05001D4C7D
:100160001D4BE41AA410002C0EDC280000F092F9BC
:10017000AA00154BD35898470135E2E7AA00144B63
:10018000D35898470135E3E7013CA200124BD358FE
:100190009847E8E7BABADECA0000002084000020D1
:1001A0000000002040140008880000207856341217
:1001B0003254769888000020240100208800002016
:1001C00028010020580200085802000858020008C0
:1001D00058020008580200085802000810B5FFF73E
:1001E00071FF00BEFEE704207146084202D0EFF323
:1001F000098001E0EFF3088071460B4A104770B5A3
:1002000004000D00044800F087F92900200000F0E8
:10021000E5F900BEFEE7C046F413000800BEFEE7A5
:1002200000BEFEE770470000FF01000800BEFEE7C9
:10023000401400080000002088000020401400083E
:1002400000000000000000008800002028010020BD
:080250000000000000000000A6
:1002580070B505000E009023DB05984212D03E4B86
:1002680098420FD03D4B98420CD03D4B984209D054
:100278003C4B984206D03C4B984203D0AE213B48B9
:1002880000F03CF93368002B07D03379032B09D8E9
:10029800F379022B0BD8002441E0AF21334800F05A
:1002A8002DF9F2E7B021314800F028F9F0E7B12143
:1002B8002E4800F023F9EEE7AB68610003228A407C
:1002C8009343AB60AB6872798A401343AB60B379F0
:1002D800012B3BD8AB882104090C01228A409343A7
:1002E800AB80A888B2798A4093B20343AB802A686E
:1002F800610003231800884082432A602A68307905
:10030800884002432A60EA682004C00B83409A436D
:10031800EA60EB68F2798A401343EB6001340F2CF2
:1003280019D80123A34032681A409342F6D1337991
:10033800013BDBB2012BDAD87379012BBCD9032B33
:10034800BAD0C121094800F0D9F8B5E7C821074853
:1003580000F0D4F8BEE770BD00040048000800486B
:10036800000C00480010004800140048A0120008C3
:1003780070B504000D009023DB05984213D00F4B95
:10038800984210D00E4B98420DD00E4B98420AD08E
:100398000D4B984207D00D4B984204D08621FF316F
:1003A8000B4800F0ABF8002D01D0A56170BDC3214A
:1003B8004900074800F0A2F8F7E7C04600040048E3
:1003C80000080048000C00480010004800140048CD
:1003D800A012000870B504000D009023DB059842B8
:1003E80013D00F4B984210D00E4B98420DD00E4BA5
:1003F80098420AD00D4B984207D00D4B984204D032
:10040800CD2149000B4800F079F8002D01D0258551
:1004180070BD9C21FF31074800F070F8F7E7C0462F
:100428000004004800080048000C0048001000487C
:1004380000140048A012000870B504000D000E4B0F
:10044800184201D1002803D10C490D4800F056F894
:10045800012D06D8002D09D10A4A5369A3435361D7
:1004680070BD0949064800F049F8F3E7054A5369A1
:100478001C435461F4E7C046A8FF81FE56050000FE
:10048800D41200080010024057050000FEE70000E3
:1004980010B5034800F052F80120FFF7F7FFC046F7
:1004A8000413000810B503000D4A1268002A0BD087
:1004B8000B4A1068033303229343C318094A934233
:1004C80006D8074A136010BD054A07491160EFE7CF
:1004D80000F0B6FA0C23036001204042F3E7C0465F
:1004E8008C000020001C002028010020012303604C
:1004F800014B0B607047C0460400002010B50A008D
:100508000100024800F004F8FFF7C2FF18130008C2
:100518000FB400B583B004AB04CB01938021064827
:1005280000F0C6FA002803DD0100034800F046F891
:1005380003B008BC04B018479400002010B50400AC
:1005480000F084FA0100200000F038F80121024888
:1005580000F034F810BDC04650130008F0B5C64688
:1005680000B586B0040001914356002B01D0019FCD
:100578001CE00426301C211CABBE041C019806B0EC
:1005880004BC9046F0BD0022A25602A9CA54013309
:100598000134B342F7D302AA904600224146CA5416
:1005A8000425281C4146ABBE8046BF1B002FE5D062
:1005B8003E00102F00D910260023EAE710B5FFF7F8
:1005C800CDFF10BD10B500F0A3F810BD10B500F0B8
:1005D800D1F810BD70B504000D001548FFF798FF5D
:1005E80021681448FFF794FF61681348FFF790FFEC
:1005F800A1681248FFF78CFFE1681148FFF788FFF0
:1006080021691048FFF784FF61690F48FFF780FFF1
:10061800A1690E48FFF77CFFE1690D48FFF778FFF5
:100628000C48FFF775FF29000B48FFF771FF70BDF5
:1006380044130008541300086413000874130008D6
:100648008413000894130008A4130008B4130008C6
:10065800C4130008D4130008DC13000882B0002378
:1006680001930093274A116880235B020B431360B0
:10067800244B1B688022920213400093019B013394
:100688000193009B002B04D1019AA023DB019A421D
:10069800EED11C4B1B689B0306D501230093009BDE
:1006A800012B04D002B0704700230093F7E7164BE4
:1006B80011221A60134B5A685A605A685A605A686D
:1006C80012490A405A605968882252030A435A60FC
:1006D8001968802252040A431A600A4B1B689B015E
:1006E800FBD5084B5A6803218A435A605A68013976
:1006F8000A435A60034B5A680C231340082BF9D15C
:10070800D0E7C0460010024000200240FF7FC0FF33
:1007180010B5124B1A6801210A431A605A6810482A
:1007280002405A601A680F4802401A601A680E4858
:1007380002401A605A680D4802405A60DA6A0F206F
:100748008243DA621A6B0A4802401A635A6B8A4378
:100758005A6300229A60FFF781FF10BD0010024023
:100768000CB8FF08FFFFF6FEFFFFFBFFFFFFC0FF0F
:10077800ACFEFFFF10B5214B5A680C231340042B25
:1007880017D0082B19D0002B03D01D4B1D4A1A6017
:1007980002E01B4B1B4A1A60184B5A6812090F23B8
:1007A8001340194AD35CDBB2154A1168D94011606D
:1007B80010BD134B134A1A60EEE7104B58685A687D
:1007C800C0235B02800C0F24044002341A4209D172
:1007D80063011B1B9801C01AC00004192302084AB0
:1007E8001360D9E7054BDB6A0F2119400131054831
:1007F80000F09AF84443024B1C60CDE70010024019
:100808001C00002000127A000C00002030B583B0D4
:10081800802001210003FFF70FFE8025AD00009521
:1008280001236A46137100239371032269464A71B2
:10083800CB71054C2000FFF70BFD29002000FFF7C6
:10084800C9FD03B030BDC0460008004810B50C4BC8
:100858001868FA21890000F067F80138094B9842B6
:100868000DD8094A50600948036A1B021B0AC021B7
:1008780009060B430362002393600733136010BD1E
:100888001C000020FFFFFF0010E000E000ED00E08A
:10089800034B1860024B1B68002BFBD17047C04606
:1008A80020010020044B1B68002B03D0024A136868
:1008B800013B13607047C0462001002010B5FFF7C8
:1008C800F1FF10BD4018704770B503210220FFF7F3
:1008D800F9FF050001001148FFF71AFEFFF7B6FF00
:1008E800FFF794FF00240BE00D48FFF7D1FF8021AC
:1008F80089000C48FFF76EFDFA20FFF7C9FF0134A5
:1009080029000648FFF704FE802189000548FFF703
:100918002FFD002CE8D1FA208000E6E70414000837
:10092800EE02000000080048002243088B4274D3FE
:1009380003098B425FD3030A8B4244D3030B8B42D8
:1009480028D3030C8B420DD3FF22090212BA030CE1
:100958008B4202D31212090265D0030B8B4219D3C2
:1009680000E0090AC30B8B4201D3CB03C01A5241E2
:10097800830B8B4201D38B03C01A5241430B8B422A
:1009880001D34B03C01A5241030B8B4201D30B0313
:10099800C01A5241C30A8B4201D3CB02C01A52413A
:1009A800830A8B4201D38B02C01A5241430A8B42FD
:1009B80001D34B02C01A5241030A8B4201D30B02E6
:1009C800C01A5241CDD2C3098B4201D3CB01C01A00
:1009D800524183098B4201D38B01C01A524143090A
:1009E8008B4201D34B01C01A524103098B4201D3F8
:1009F8000B01C01A5241C3088B4201D3CB00C01A65
:100A0800524183088B4201D38B00C01A52414308DC
:100A18008B4201D34B00C01A5241411A00D2014601
:100A2800524110467047FFE701B5002000F006F874
:100A380002BDC0460029F7D076E770477047C04628
:100A4800014B18687047C046200000200023C25C94
:100A58000133002AFBD1581E704730B514009BB0F3
:100A680005001A00002C05DA8B23036001204042A0
:100A78001BB030BD822368469B0083810023009110
:100A880004919C4200D0631E02930593012369469A
:100A98005B42CB8128001E9B00F078F8431C01DAEA
:100AA8008B232B60002CE3D00023009A1370DFE720
:100AB80007B5009313000A00010002480068FFF719
:100AC800CCFF0EBD20000020F0B58E6885B0070071
:100AD8000C00039201939E423CD890238A89DB0044
:100AE8001A4234D00325096923685B1A02936369A3
:100AF80002985D43EB0F5D19019B6D1001331B18C4
:100B0800AB4200D91D00530532D52900380000F04A
:100B180023FB061E09D10C233B6040230120A28938
:100B280040421343A38105B0F0BD029A216900F049
:100B3800ACFAA389144A1A4080231343A381029B69
:100B48002661F61826606561019EED1AA560019B75
:100B58009E4200D9019E32000399206800F09EFA57
:100B6800A36800209B1BA36023689E192660DAE710
:100B78002A00380000F04EFB061EE0D1216938003B
:100B880000F0A0FAC7E7C0467FFBFFFFF0B5A1B0B1
:100B980003901D008B890F0016001B0611D50B69E9
:100BA800002B0ED1402100F0D7FA386038610028B8
:100BB80005D10C23039A0138136021B0F0BD4023FE
:100BC8007B61002308AC6361203363761033A3761E
:100BD800079535002B78002B01D0252B46D1AB1B70
:100BE80005930CD0320039000398FFF76DFF431CC2
:100BF80000D1AEE06269059B9446634463612B783B
:100C0800002B00D1A5E0012200235242626004A912
:100C1800543252186E1C2360E360A3601370A365FE
:100C280031780522534800F025FA751C00281FD199
:100C38002268D30604D5532304A95B182021197010
:100C4800130704D5532304A95B182B211970337893
:100C58002A2B16D0350000210A20E3682A786E1C5A
:100C6800303A092A4ED9002918D010E00135B1E7E9
:100C7800404B2268C01A01238340134323602E008F
:100C8800CEE7079B191D1B680791002B01DB0B930F
:100C980004E05B42E3600223134323602B782E2B8E
:100CA8000AD16B782A2B35D1079B02351A1D1B6890
:100CB8000792002B2BDB09932F4E29780322300053
:100CC80000F0D8F9002806D04023801B8340226812
:100CD8000135134323602978062228486E1C2176A3
:100CE80000F0C8F900283CD0254B002B25D107225D
:100CF800079B07339343083307936369049A9B1848
:100D0800636166E7434301219B183500A6E7012389
:100D18005B42D0E700230A201A0001356360297876
:100D28006E1C3039092903D9002BC5D00992C3E7B5
:100D38004243012352183500F1E707AB00933A000C
:100D4800104B2100039800E000BF0490049B01337E
:100D5800D3D1BB890D985B0600D42EE70120404211
:100D68002BE707AB00933A00064B2100039800F0ED
:100D780079F8EAE70C1400081214000816140008A1
:100D880000000000D10A0008F7B5150001938A6831
:100D98000B6900900C00934200DA130022002B60CC
:100DA80043321278002A01D001332B6023689B0656
:100DB80002D52B6802332B60062723681F4027D0F3
:100DC800230043331B785A1E93412268920630D47D
:100DD8002200019943320098089EB047431C25D051
:100DE800062320682A68E16803400025042B03D104
:100DF8008D1AEB43DB171D40A3682269934201DD7E
:100E08009B1AED180027BD4220D1002010E00137C1
:100E1800E3682A689B1ABB42D2DD220001231932FB
:100E280001990098089EB047431CF0D10120404228
:100E3800FEBD3020E1184331087021005A1C4531AD
:100E48000978A218433202331170C1E72200012346
:100E58001A3201990098089EB047431CE6D0013722
:100E6800D1E70000F0B589B004920A004332059337
:100E7800039002920A7E0C000E9B6E2A00D186E037
:100E88001FD8632A33D008D8002A00D18CE0582A0A
:100E98004DD0250042352A7030E0642A01D0692AF5
:100EA800F7D1196825680A1D280629D508681A6027
:100EB800002803DA2D23029A404213706B4E0A274A
:100EC8004FE0732A74D008D86F2A1FD0702AE0D157
:100ED800202209680A43226003E0752A16D0782A7E
:100EE800D7D12200782145321170614E22E02500C9
:100EF8001A684235111D196013682B70012365E0CB
:100F080008681A606906D3D500B2D1E71968256860
:100F1800081D186008682E0605D5544E08276F2A44
:100F28001BD00A2719E06D06F7D580B2F5E74531E1
:100F38004E4E0A7018682268011D0068196015066F
:100F480021D5D30702D520231A4322601027002871
:100F580003D1202322689A432260230000224333CE
:100F68001A706368A360002B58DB04222168914340
:100F78002160002854D1029D002B5AD025003378D7
:100F880042352B7055E05506DBD580B2D9E71A6893
:100F98000D68101D4969186013682E0601D519607F
:100FA80002E06D06FBD519800023029D23614FE006
:100FB8001A68111D1960156800216268280000F080
:100FC80059F8002801D0401B606063682361002342
:100FD800029A13703CE023692A0004990398059D3E
:100FE800A847431C3ED023689B0715D4079BE0689D
:100FF800984239DA180037E022000123193204999F
:101008000398059EB047431C2CD00135E368079A26
:101018009B1AAB42F0DCE9E70025F7E70028ADD0E2
:10102800029D3900FFF706FD735C013D2B70002817
:10103800F7D1082F09D12368DB0706D56368226931
:10104800934202DC3023013D2B70029B5B1B236122
:10105800059B07AA00932100049B0398FFF794FEC1
:10106800431CB8D10120404209B0F0BD1D1400084E
:101078002E140008C9B28218904201D1002070478E
:1010880003788B42FBD00130F6E7002310B59A4273
:1010980000D110BDCC5CC4540133F8E710B58842C8
:1010A80002D98B18984203D3002307E08B5C835442
:1010B800013AFBD210BDCC5CC45401339A42FAD138
:1010C800F8E7000070B50500002910D00C1F236850
:1010D800002B00DAE418280000F0D4F81D4A136841
:1010E800002B05D163601460280000F0CCF870BDB7
:1010F800A34209D9216860188342F3D118685B6854
:1011080041182160EEE713005A68002A01D0A24274
:10111800F9D919685818A0420BD12068091858182D
:1011280019608242E0D110685268411819605A600B
:10113800DAE7A04202D90C232B60D5E721686018B2
:10114800824203D1106852684118216062605C6075
:10115800CAE7C04614010020032370B5CD1C9D4387
:10116800083506000C2D1ED20C25A9421DD83000CA
:1011780000F088F8254A14682100002919D1244C68
:101188002368002B03D1300000F06AF820602900A2
:10119800300000F065F8431C2BD10C23300033607D
:1011A80000F071F803E0002DDFDA0C233360002033
:1011B80070BD0B685B1B19D40B2B03D90B60CC18C3
:1011C800256003E04B688C420DD11360300000F0BD
:1011D8005AF8200007220B30231D9043C31AE7D08A
:1011E8005A42E250E4E763600C00EFE70C004968FC
:1011F800C3E70323C41C9C43A042E1D0211A30005A
:1012080000F02EF8431CDBD1C7E7C04614010020CC
:1012180018010020F8B507000D001600002905D1B7
:101228001100FFF799FF04002000F8BD002A03D140
:10123800FFF748FF3400F7E700F026F82C00B0422B
:10124800F2D231003800FFF787FF041EECD02900E6
:101258003200FFF71AFF29003800FFF733FFE3E7F2
:10126800002370B5064C050008002360FFF71AF943
:10127800431C03D12368002B00D02B6070BDC046EF
:101288001C010020704770470B1F1B68181F002B9C
:1012980001DA0B58C01870472E2E2F7379737465B6
:1012A8006D2F7372632F73746D333266302D7374C0
:1012B800647065726970682F73746D333266307844
:1012C800785F6770696F2E63000000002E2E2F7301
:1012D800797374656D2F7372632F73746D3332660F
:1012E800302D7374647065726970682F73746D3310
:1012F80032663078785F7263632E630061626F7262
:101308007428292C2065786974696E672E2E2E0042
:101318006173736572745F706172616D28292066EC
:1013280061696C65643A2066696C652022257322C0
:101338002C206C696E652025640A00005374616373
:101348006B206672616D653A0A00000020523020F9
:101358003D2020253038580A000000002052312056
:101368003D2020253038580A000000002052322045
:101378003D2020253038580A000000002052332034
:101388003D2020253038580A000000002052313214
:10139800203D20253038580A00000000204C5220FB
:1013A8003D2020253038580A0000000020504320F6
:1013B8003D2020253038580A0000000020505352A4
:1013C800203D20253038580A000000004D6973631D
:1013D8000A000000204C522F4558435F524554558F
:1013E800524E3D20253038580A0000005B48617293
:1013F800644661756C745D0A00000000322B333D51
:1014080025640000232D302B2000686C4C00656695
:10141800674546470030313233343536373839413D
:101428004243444546003031323334353637383953
:071438006162636465660058
:1014400078563412900000200000000000000000D8
:10145000000000000102030406070809006CDC021A
:101460002400002000000000000000000000000038
:10147000000000000000000000000000000000006C
:10148000000000000000000000000000000000005C
:10149000000000000000000000000000000000004C
:1014A000000000000000000000000000000000003C
:1014B000000000000000000000000000000000002C
:0814C000000000003254769890
:04000005080000C52A
:00000001FF
